:0400000082317D2AA2
:1000080080312100111CA8292000111CA8291110D9
:10001800E0309700C03096002200480B4D2823009E
:10002800BE0A0319BF0A03303F02213003193E02FA
:10003800031C4428BE01BF012100550B2C282200B7
:100048001530B10A3102031C2C28B1012100D50159
:1000580022003F0B44282000EA08031D44282300FF
:10006800BC0A0319BD0A00303D02143003193C02D2
:10007800031C4428BC01BD0163000000000000000F
:1000880022002830C50A4502031C4D28C501AF01CE
:10009800AF0A3E0B8528033023003902E8300319E4
:1000A800380203185B28B80A0319B90A85280030F2
:1000B800B801B9013B023C3003193A020318682819
:1000C800BA0A0319BB0A85280030BA01BB013702F6
:1000D8003C300319360203187528B60A0319B70A03
:1000E80085280030B601B70121004D0218300319E8
:1000F8004C0203188328CC0A0319CD0A8528CC01A1
:10010800CD012200370B98282300A60A0319A70A55
:1001180003302702E83003192602031C9828A60199
:10012800A7012200A801A80A2200390BAB28230046
:10013800AA0A0319AB0A03302B02E83003192A0272
:10014800031CAB28AA01AB012200AA01AA0A2200BB
:100158003A0BBE282300AC0A0319AD0A00302D0261
:10016800053003192C02031CBE28AC01AD01220086
:10017800AB01AB0A22003B0BD1282300AE0A0319BE
:10018800AF0A00302F02053003192E02031CD128B4
:10019800AE01AF012200AC01AC0A22003D0BE428FD
:1001A8002300B20A0319B30A0030330205300319D9
:1001B8003202031CE428B201B3012200AE01AE0AE8
:1001C80022003C0BF7282300B00A0319B10A0030BB
:1001D8003102053003193002031CF728B001B101C0
:1001E8002200AD01AD0A2200380B0A292300A80A13
:1001F8000319A90A00302902023003192802031C36
:100208000A29A801A9012200A901A90A22004E0869
:1002180003198529CE0B852921005908053A031DA4
:10022800222928002108A13A031D22292408AA3AD4
:10023800031D22292200C401C40A332921005908B8
:10024800053A031D362928002108A23A031D36293C
:100258002408AA3A031D362902302200C400CD0121
:10026800CD0A852921005908153A031D4629280079
:100278002108A33A031D46293408AA3A031D462932
:100288000330312921005908053A031D5629280051
:100298002108A43A031D56292408AA3A031D562901
:1002A8000430312921005908053A031D6629280020
:1002B8002108A53A031D66292408AA3A031D6629C0
:1002C8000530312921005908053A031D76292800EF
:1002D8002108A63A031D76292408AA3A031D76297F
:1002E8000630312923001D197B299D1C83291D12E5
:1002F8009D1300000000000023001D169D1721001B
:10030800D9012200500803198D29D00B8D2921000D
:1003180011162200510B952923009E1C95292200B5
:10032800D101220033080319A829B30BA8294308CF
:10033800203A031DA329B201B20AC301A829C301A7
:10034800B401200095010B112100111EC5292000C0
:10035800111EC52922004F080319BC29CF035208D2
:1003680086008701010823009A002200D20AC529C5
:10037800CF08031DC429D101D10A21001112C529B2
:1003880000002000911EEB292100911EEB2923007B
:1003980019082000A0000A302200CE0015302100E4
:1003A80059020318EB292200CD08031DEB2921006F
:1003B8005908203E8600043087002000200881006C
:1003C80028002008553A031DEB292100D90A2100ED
:1003D800921E082A2000921E082A92122200033038
:1003E800B001B00A2100D40022008E110230210091
:1003F800C400C5014508F1004408F0008E31C42648
:1004080080319031CD2080318B190B1C09002700D9
:10041800161A1612961F0900961396302200B3007A
:100428002030430203180900B208031D0900B4086C
:10043800031D2C2AB401B40A282A2200C30124006F
:10044800EC01ED01EE01EF01200095010B1109000F
:10045800340B090020001508A100A2010B19212A5C
:10046800003022021530031921020030031C4B2AE8
:10047800220232300319210203184A2A2200C30A31
:100488002400EC35ED0DEE0DEF0D282A0030220288
:10049800333003192102031C0900003022025A30AC
:1004A800031921020318090022000130C30AF400CD
:1004B800F501F601F70124006C08F8006D08F90051
:1004C8006E08FA006F08FB00F835F90DFA0DFB0D00
:1004D8007808F4077908F53D7A08F63D7B08F73D7A
:1004E8007708EF007608EE007508ED007408EC0058
:1004F800282A88316D2828002108A23A031DA12E38
:100508002130F1278831032082312408E700CF27E2
:100518008231031DA12E55302700A000B230A10062
:10052800F5268231C626A23191228231CF268E311C
:10053800742682315A082700A20079278E31742642
:1005480082315A082700A300AF26A23191228231B6
:10055800CF268E31742682315A082700A4006827D6
:100568008E31742682315A082700A50035278E312E
:10057800742682315A082700A60057278E31742620
:1005880082315A082700A70046278E317426823107
:100598005A082700A80013278E31742682315A087A
:1005A8002700A90024278E31742682315A08270093
:1005B800AA0021006C082700AB0021005B08270077
:1005C800AC00210065082700AD002100670827005E
:1005D800AE00210069082700AF0022006B08270041
:1005E800B00022006D082700B100EB271130A500EC
:1005F800883103208231C8278231B2007C08B300D9
:10060800AA30B400A12E28002108A33A031DA12E68
:1006180021302000A3000430A4001130A500883147
:10062800032082312408E7002308E6006708280031
:100638003206031D232B2000660828003306031DFD
:10064800A12E22082000AE00280023082000AD00BB
:10065800A6316726823130082100E00020002F08EB
:100668002100DF0020002E082100DE0020002D08D8
:100678002100DD00280024082000AE0028002508FD
:100688002000AD00A6316726823130082100E40041
:1006980020002F082100E30020002E082100E2009E
:1006A80020002D082100E10028002608A631842614
:1006B800823130082200DA0020002F082200D900F9
:1006C80020002E082200D80020002D082200D70084
:1006D80028002708A6318426823130082200DE004F
:1006E80020002F082200DD0020002E082200DC0058
:1006F80020002D082200DB0028002808A6318426C7
:10070800823130082200E20020002F082200E10098
:1007180020002E082200E00020002D082200DF0023
:1007280028002908A6318426823130082200E600F4
:1007380020002F082200E50020002E082200E400F7
:1007480020002D082200E30028002A08A63184266C
:10075800823130082200EA0020002F082200E90038
:1007680020002E082200E80020002D082200E700C3
:100778002100D201EE01EE0A28002B082100EC002E
:1007880028002C082100DB00DC0128002D082100AE
:10079800E500E60128002E082100E700E80128000E
:1007A8002F082100E900EA01280030082200EB00A8
:1007B800EC01280031082200ED00EE01210060085C
:1007C8002000DD0021005F082000DC0021005E0819
:1007D8002000DB0021005D082000DA004230E10043
:1007E800C830E000DF01DE019D31DA258231031CCB
:1007F8000C2E4430DD009630DC00DB01DA012100EC
:1008080060082000E10021005F082000E0002100CE
:100818005E082000DF0021005D082000DE009D3119
:10082800DA258231031C0C2E4330DD00FA30DC005F
:10083800DB01DA01210064082000E10021006308DF
:100848002000E000210062082000DF00210061088C
:100858002000DE009D31DA258231031C0C2E423047
:10086800B4275A082000E100220059082000E000BF
:10087800220058082000DF00220057082000DE0070
:100888009D31DA258231031C0C2E4230B4275E08D4
:100898002000E10022005D082000E00022005C0842
:1008A8002000DF0022005B082000DE009D31DA25F1
:1008B8008231031C0C2E4230B42762082000E1006C
:1008C800220061082000E000220060082000DF000C
:1008D80022005F082000DE009D31DA258231031CEA
:1008E8000C2E4230B42766082000E100220065087B
:1008F8002000E000220064082000DF0022006308D6
:100908002000DE009D31DA258231031C0C2E423096
:10091800B4276A082000E100220069082000E000EE
:10092800220068082000DF00220067082000DE009F
:100938009D31DA258231031C0C2E21006C08031925
:100948000C2E03306C0203180C2E00305C023D3074
:1009580003195B0203180C2E0030660219300319C4
:10096800650203180C2E003068021930031967025B
:1009780003180C2E00306A02193003196902031893
:100988000C2E003022006C02193003196B02031878
:10099800D42C00306E02193003196D02031CD62CBA
:1009A80021000C2EF5268231C626A23191228231F1
:1009B800CF268E31742682315A08E40000308B31FC
:1009C8006723823179278E31742682315A08E400F0
:1009D80001308B3167238231AF26A23191228231D7
:1009E800CF268E31742682315A08E40002308B31CA
:1009F8006723823168278E31742682315A08E400D1
:100A080003308B316723823135278E31742682314A
:100A18005A08E40004308B316723823157278E311E
:100A2800742682315A08E40005308B3167238231FD
:100A380046278E31742682315A08E40006308B31FD
:100A48006723823113278E31742682315A08E400D5
:100A580007308B316723823124278E317426823107
:100A68005A08E40008308B316723823121006C0872
:100A78002000E4000A308B316723823121005B08B3
:100A88002000E4000B308B31672382312100650898
:100A98002000E4000C308B31672382312100670885
:100AA8002000E4000D308B31672382312100690872
:100AB8002000E4000E308B316723823122006B085E
:100AC8002000E4000F308B316723823122006D084B
:100AD8002000E40010308B3167238231423020003F
:100AE800CA007430C9004130C801C701B7002030BE
:100AF800B600B501B401210060082000BB00210048
:100B08005F082000BA0021005E082000B90021001B
:100B18005D082000B800A231FC228231B431532490
:100B28008231A231912282314A082500E300200057
:100B380049082500E200200048082500E1002000BF
:100B480047082500E0004330DF002330DE00EF30A7
:100B5800DD003730DC0043302000B3319723823189
:100B6800A23191228231D826A231FC2282318E31E3
:100B78000026823121005C085B04031DCB2D230075
:100B88000130A301A201A100F430A000E22D5C080D
:100B98002000A40021005B082000A3003830A50035
:100BA8000430A60091310821823123082300A000D7
:100BB800200024082300A100A201A3012000EA01CB
:100BC8006A08E40038308B31672382310430210011
:100BD800DA0022008E31362682318B31672382314A
:100BE8002200C201EA268231E227B330A100A130F7
:100BF800A201A20A2000A3000330A4000230A5002D
:100C0800883103208231C8278231F8278231A12E0A
:100C180055302700A000B330A1000230A200EB2716
:100C28000230A500883103208231C8278231F82795
:100C380082310100A12E21005530DA01DA0A27009D
:100C4800A000B430FA2D02302100DA005530270018
:100C5800A000B530FA2D2100DA012200BF012300DF
:100C6800BC01BD0122008E31362682318B316723CB
:100C780082312000EA01EA0A6A08E40038308B3140
:100C8800672382318D31A12582312000A301A4017F
:100C98008D31A72582318B31622382318E313F26F7
:100CA80082318D316C25823122008E158D31D2250D
:100CB80082318E31662682318D316C2582318E31BA
:100CC8005B2682318B313D238231A301A4018D3112
:100CD8006C2582318B31622382318E313F268231FD
:100CE8008D316C2582312200B701B70AB901B90AE2
:100CF800BA01BA0ABB01BB0ABC01BC0ABD01BD0AE4
:100D0800B801B80AC201EA268231E2278231B63038
:100D1800FA2D4408013A0319FE2F033A03197F2AD2
:100D2800013A0319072B073A03191F2E013A031931
:100D3800272E033A03192F2EA12E22002030C4019A
:100D48002000A3000430A4005030A501A601A7008C
:100D5800A8018F31E92F210064082000CE0021006E
:100D680063082000CD00210062082000CC0021008B
:100D780061082000CB004330CA008030C900C80198
:100D8800C70108002000CB004330CA008030C900EA
:100D9800C801C70108004A08DD004908DC00480806
:100DA800DB004708DA0008004A08BB004908BA0017
:100DB8004808B9004708B80008003308CE003208D0
:100DC800CD003108CC003008CB0008002500A40174
:100DD800A501A601A7012400B401B501B601B70118
:100DE8000800210060082000CE0021005F082000D4
:100DF800CD0021005E082000CC0021005D0808001D
:100E0800210051082000B100210050082000B00046
:100E180008006B08083E073909070907080022007F
:100E280066082000DD00220065082000DC002200A2
:100E380064082000DB00220063082000DA000800B4
:100E480022006A082000DD00220069082000DC007A
:100E5800220068082000DB00220067082000DA0072
:100E6800080022005A082000DD002200590820004E
:100E7800DC00220058082000DB0022005708200070
:100E8800DA000800220062082000DD002200610864
:100E98002000DC00220060082000DB0022005F0840
:100EA8002000DA00080022005E082000DD00220091
:100EB8005D082000DC0022005C082000DB00220026
:100EC8005B082000DA000800210064082000DD002B
:100ED800210063082000DC00210062082000DB00FC
:100EE800210061082000DA000800210060082000C5
:100EF800DD0021005F082000DC0021005E082000E2
:100F0800DB0021005D082000DA0008006B08033EC2
:100F180007390907090708006B08023E073909075E
:100F2800090708006B08013E073909070907080087
:100F38006B08043E07390907090708006B08053ED6
:100F480007390907090708006B08073E0739090729
:100F5800090708006B08063E073909070907080052
:100F6800DD00C830DC00DB01DA01220008002000C7
:100F7800B7007430B6004130B501B401CA00203062
:100F8800C900C801C70108002408FD002308FC00A7
:100F98007D08270008002308E600670828002206C5
:100FA800031D08002000660828002306080020000A
:100FB800B100210048082000B00008002500553085
:100FC800A801A901AA01AB012700A0000800A130CF
:100FD8002000A3000330A40008002000A300043070
:100FE800A400A501A50A0800A3007C08A400AA3053
:080FF800A5000800AC31B22C89
:10100600FF30AA00AB00A5032508FF3A03192828DC
:10101600230886002408870001082A06A600A701DF
:10102600A801A901A30A0319A40A013E8400B83045
:10103600273D850000082B06AA00013026078400FC
:10104600B930273D8500000805282A08A400A30119
:101056002B08A3040800AB01AC01AD01AE012608C4
:1010660025042404230403196428AF01AF0AA61B30
:101076004128A335A40DA50DA60D3928AB35AC0D19
:10108600AD0DAE0D26082A02031D53282508290298
:10109600031D532824082802031D5328230827026A
:1010A600031C5E282308A7022408A83B2508A93BA1
:1010B6002608AA3B2B14A636A50CA40CA30CAF0B32
:1010C60041282E08A6002D08A5002C08A4002B08F0
:1010D600A300080070308400233085008030FE00B5
:1010E600FF019031DE208831C030FC01FD01E801AE
:1010F600E901EA01EB018400003085001D30FE00A5
:101106000030FF009031DE2088312030840001302D
:1011160085003330FE000030FF009031DE2088313C
:10112600A0308400013085004330FE000030FF000F
:101136009031DE2088312030840002308500343042
:10114600FE000030FF009031DE208831A0308400A0
:10115600023085002830FE000030FF009031DE208E
:10116600883120308400033085001C30FE000030BA
:10117600FF009031DE208831A030840003308500E6
:101186005030FE000030FF009031DE2088312030E4
:101196008400043085005030FE000030FF0090319E
:1011A600DE208831F630840090308500DD30860000
:1011B600003087000030FF0012309031D220883195
:1011C6003930840091308500533086000130870025
:1011D6000030FF001D309031D2208831EA30840083
:1011E60090308500E3308600013087000030FF0034
:1011F6000C309031D22088311D308400913085002A
:1012060054308600023087000030FF001C309031D9
:10121600D22088315630840091308500C83086004F
:10122600023087000030FF0020309031D220883114
:1012360020001D29EB268831E025A131D0218831F7
:10124600640022002F0B2B29752188312200AF0163
:10125600320B4B2924006F082100A30024006E08DE
:101266002100A20024006D082100A10024006C08C2
:101276002100A0008A222200C301B4012400EC014F
:10128600ED01EE01EF01200095010B112200B201E4
:10129600A931882188318423883123001D195529D5
:1012A6009D1C5D291D129D130000000000002300F7
:1012B6001D169D1722004D0B2329AC31B024883111
:1012C60023001D1968299D1C70291D129D130000FD
:1012D6000000000023001D169D172100D9012200E1
:1012E600CD0123292000E601E7010D0EE425883112
:1012F6000E0E890C890CE42588310E0E890CE42526
:1013060088310E0EE42588319A292200A601B029DB
:101316002100EB01EB0A922902302100EB002200AA
:10132600A601A60AB029033090290430902967083F
:10133600003A03199F2992296608073A03198B294F
:101346000C3A03198F29063A03199629033A031909
:101356009829013A031988299229A608031D152AF6
:1013660021006B08103A031D042A152A00002300E9
:10137600C101122A20006A0B122A2100D701702609
:1013860088316723883121004B26883167238831CD
:101396002100DA0145268831A12588312000A301E4
:1013A600A401A7258831622388313F2688316C2520
:1013B600883122008E15D2258831662688316C2523
:1013C60088315B2688313D238831A301A4016C2531
:1013D6008831622388313F2688316C258831220086
:1013E60025268831122A20006A0B122A2100D701ED
:1013F600D70AC22920006A0B122A02302100D70020
:10140600C2296B08013A0319B929033A0319FD29C0
:10141600013A0319BD29073A0319F629122A103091
:101426002100EB0021006B0B7F2A2200260B7F2A6E
:101436002300C108031D7F2A5030220035020318FD
:10144600262AB50A812A0130B5012000EA066A0873
:10145600E400383067238831C101C10A2000EA0858
:10146600031D3E2A04302100DA0022003626883188
:1014760067238831812A2100DA012200BF01230077
:10148600BC01BD0122003626883167238831A1259B
:1014960088312000A301A401A72588316223883161
:1014A6003F2688316C25883122008E15D225883159
:1014B600662688316C2588315B2688313D23883144
:1014C600A301A4016C258831622388313F26883127
:1014D6006C2588312200B701B70AB901B90ABA01E9
:1014E600BA0ABB01BB0ABC01BC0ABD01BD0AB801F0
:1014F600B80A25268831812A2200B50120008E1CD3
:1015060008002200B1012100D501D50A08002108F2
:101516002000E6002B2B000008006A0B08002100C3
:10152600D701702688316723883121004B26883100
:10153600672388312100DA0145268831A1258831C3
:101546002000A301A401A7258831622388313F2604
:1015560088316C25883122008E15D2258831662681
:1015660088316C2588315B2688313D238831A3017B
:10157600A4016C258831622388313F2688316C2589
:1015860088312200252608006A0B08002100D701B1
:10159600D70A942A6A0B080002302100D700942A41
:1015A6006A0BDF2A21000130D60AD605560820002C
:1015B600E4003930672388312100D608031DE72A65
:1015C60020006A0BE72A9D2A2100560B08002000FE
:1015D6006A0B08002100DA0145268831A1258831E9
:1015E6002000A301A401A7258831622388313F2664
:1015F60088316C25883122008E15D22588316626E1
:1016060088316C258831612688313D238831A301D4
:10161600A4016C258831612688313D238831C83084
:10162600A300A4016C258831612688313D238831C9
:10163600A301A4016C258831612688313D238831B8
:10164600C830A300A4016C25883161268831B82AE8
:101656006608003A03198E2A103A0319C72A503A27
:101666000319902A103A0319CD2AD83A0319D32A16
:101676003C2B0800A501A60124082602031D452BC4
:101686002308250203180800A701A801000000008E
:101696000000000000000000000000002000A70A73
:1016A6000319A80A03302802E83003192702031C8D
:1016B600492B64002000A50A0319A60A3F2B210026
:1016C6008D16280017110800E50023009518682BD1
:1016D6002000650823009100920120006408230081
:1016E60093003F30950503108B1B03148B131515C0
:1016F60055309600AA3096009514151103188B17CD
:101706000800300B8C2B2400D201D3012200B0013B
:101716008B2B2100DA08031DB42B2200420BA52BCC
:10172600270BA52B6F0BA52B2100D801D80A58082B
:10173600003A0319BC2B013A03196F2C033A03191B
:10174600B82C6B2D4208023A031DB12B270BB12B87
:101756006F0BB12B02302100D8009A2B2100D80143
:101766009A2B5A0BB72B972B5A08023A0319AD2B13
:10177600B12B2200B608031D102CA12588312000AC
:10178600A301A401A7258831622388312000A30183
:10179600A4016C25883122008E11C7010C138C130D
:1017A600D72522000E1421004230C601C701C4010C
:1017B600C501C3004830C2002030C101C001A731B5
:1017C600EE2788319725A731F32788319725883169
:1017D600C730AB000130AC009725A631BC26883156
:1017E6009E311A268831A731BF278831A731752740
:1017F6008831B33197238831A231912288318631DD
:10180600D8268831A231FC2288310026883110265C
:101816008831B60A2100D401D3012000EA08031D4D
:1018260008002200360B0800A12588312000A301FC
:10183600A401A7258831622388313F2688316C258B
:10184600883122008E15D2258831662688316C258E
:101856008831612688313D238831A301A4016C2596
:101866008831612688313D238831C830A300A40120
:101876006C258831612688313D238831A301A40176
:101886006C258831612688313D238831C830A30014
:10189600A4016C258831612688313D238831A30156
:1018A600A4016C258831622388313F2688316C2556
:1018B60002302200B600B701B901BA01BB01BC0172
:1018C600BD01B8012300C1012200BF01BF0A6300A8
:1018D6000000000000000800530B08006223883156
:1018E6002000A301A4016C25883122008E11A125B8
:1018F60088316B268831D72588315026C600C70126
:101906009F316D278831A7252030A731EE278831F2
:101916009725A731F32788319725A631BC2688312C
:101926009E311A268831A731BF2788311026883183
:1019360021000230D401D30020000730EB0AEB056A
:101946006B08E40011306723220023082400A70057
:10195600220022082400A600220021082400A50057
:10196600220020082400A4000800D408031D080053
:10197600A12588312000A301A401A72588312200D2
:101986008E11622388316B268831D72588315026FF
:10199600B331D22388316C258831C7302000AB00A3
:1019A6000130AC009725A73175278831B3319723CD
:1019B6008831A231912288318631D8268831A231E8
:1019C600FC2288310026883110262100D401D40A51
:1019D600D301220023082400A300220022082400A9
:1019E600A200220021082400A100220020082400D1
:1019F600A00023082000CE00240022082000CD00ED
:101A0600240021082000CC00240020088631C626A8
:101A16008831A231912288318631CF2688317426C9
:101A26005A08E40087310D278831123E6723883132
:101A3600240023082000DD00240022082000DC000A
:101A4600240021082000DB00240020082000DA0002
:101A560074265A08E40087310D278831133E672320
:101A6600240027082000CE00240026082000CD00F0
:101A7600240025082000CC00240024088631C62630
:101A86008831A231912288318631CF268831742659
:101A96005A08E40087310D278831143E67238831C0
:101AA600240027082000DD00240026082000DC0092
:101AB600240025082000DB00240024082000DA008A
:101AC60074265A08E40087310D278831153E672BA6
:101AD600080024082100C500200023082100C400B6
:101AE600013020002402E930031923020318942D43
:101AF6002408A6002308A500A636A50CA636A50C24
:101B0600250826009100200023080339A500A50E0C
:101B16002600130820002506CF3925062600930047
:101B260008007A302600E72E2C08A4002B08A30014
:101B36001C30A501A601A700A801E92F21000E155A
:101B46000D1528001E11080024082100C7002000DA
:101B560023082100C6000330200024028530031923
:101B660023020318CF2D2408A6002308A500A636B5
:101B7600A50CA636A50C25082500910020002308F3
:101B86000339A500A50E2500130820002506CF3928
:101B96002506250093000800E1302500E72E2100E8
:101BA6008D12280017150800000000000000000034
:101BB60000000000000000000800A2311322A3313B
:101BC600B52B01392100A000A101200067082100E2
:101BD600A300200066082100A200A235A30D20085C
:101BE6002204A40021082304A50024082000E600FE
:101BF600210025082000E700080037082300CA0056
:101C0600200036082300C900200035082300C8003C
:101C1600200034082300C70008002200BE0123006C
:101C2600B801B901BA01BB01B601B7012100CC0167
:101C3600CD012300C2012100D201EE01EE0A2200ED
:101C4600B6010800C2012500A401A501A601A7014D
:101C56002400B401B501B601B7012500A801A90108
:101C6600AA01AB010800B6012100D401D301D601B7
:101C760056082000E400393422008E112000A3010A
:101C8600A40108002200B6012100D401D3010800F6
:101C9600D60156082000E400393422000E144230E2
:101CA6002100C3004830C2003230C101C001080023
:101CB600E8302000A3000330A4000800C83020004C
:101CC600A300A4010800C8302000A300A401080056
:101CD6002200C7010C138C13080057082000E400EB
:101CE6003634BB2688310310600D610DE300E3082E
:101CF600031D822EDA01DB01DC01DD010800BB26B3
:101D060088311F30E136E00CDF0CDE0C890B852EA6
:101D16005E08E2009630DC17DD01E302E31F9F2E2A
:101D26006308803A973E031C7D2EDD36DC0CDB0C07
:101D3600DA0CE30F982EAC2E2030630203187D2EAA
:101D4600E3080319AC2EDA35DB0DDC0DDD0DE303FC
:101D5600A32E620803190800DA09DB09DC09DD098C
:101D6600DA0A0319DB0A0319DC0A0319DD0A08007B
:101D76005A08DE005B08DF005C08E0005D08E10051
:101D860008007108C5007008C40001307102E9300E
:101D9600031970020318E42E7108F3007008F200AC
:101DA600F336F20CF336F20C720826009100700836
:101DB6000339F200F20E13087206CF397206930049
:101DC60008007A302600E72E9100CF3093050800F0
:101DD600362788313E278831302788315A2788317F
:101DE60067278831FC268831112788318C2788316E
:101DF600782F8D1727009517961321000D162700AB
:101E0600151616120B108B15210095129511073019
:101E160095040B11200095018B1208002100E32781
:101E26008D158D140D149E171E088F3960389E006F
:101E36001E1103309E0422001708FC390138970052
:101E460097179716171621001D08833974389D00B9
:101E56001D10111320001113080021000D160E1776
:101E66008E160E1608007030210099001708C13929
:101E76001C389700080023008C018D01E3278D1480
:101E86008D150D1421008E148E1122008E11210045
:101E96000E150D158D160C1322000C1321008C1334
:101EA60022008C1321000E1022000E140800E030D0
:101EB60020009700C03096006030980099132100EA
:101EC6001114200018100800403023009B00033036
:101ED6009C0008309F0021000E178E1723009E01DC
:101EE60090309D00210091160800220011129112D7
:101EF6001115911411101217CF309205FC3092056E
:101F06002100921620009212220091170B178B17B0
:101F1600080021000E150D158D1622001D17FF3025
:101F260028009D0025001308F0390C38930013088B
:101F36003F39803893001E08FC3902389E00910113
:101F4600CF30930520009311873028009E051E117F
:101F5600FC309E059F30960026001308F0390C3899
:101F660093003F30930525001E08CF3910389E0098
:101F760026009101CF30930520009310873028006A
:101F860097051711FC30970521000C12CE30200062
:101F96009B0026001E08F0390C389E003F309E0537
:101FA600FC3025009F05453026009C00CF309E055D
:101FB6002000911087309C051C11FC309C05080000
:101FC6000C148C140C158C158C1608002408AA0009
:101FD6002308A9000130A7020030A83B270A0319ED
:101FE600280A03190800290886002A0887002508F8
:0A1FF6008100A90A0319AA0AED2FC1
:102192000E1128001E15080021008D1628001711A7
:1021A2000800FE0012001E000130FE020030FF3B5C
:1021B2007F087E0403190034D328640001308001B3
:1021C2000131FE020030FF3B7F087E040319003418
:1021D200DF2866346634423441346634663442342D
:1021E200413400340034F0344034003400341634C6
:1021F20044340034003404344234013400340334AF
:102202000034043400341034013401340134A701A1
:10221200A801231C10292508A7072608A83DA535D3
:10222200A60DA436A30C24082304031D0A2928089A
:10223200A4002708A30008000034003410344134FD
:102242005C348F341A344134B8341E34253441346A
:102252001434AE342F34413471343D343A34413481
:102262000034003410344134BF344034ED3410347F
:10227200CD34CC344434413400340034C834423494
:1022820000340034C834423400340034C834423498
:1022920000340034C834423400340034C834423488
:1022A2000334003401340034013400340034243463
:1022B200423400340034A034403400340034183442
:1022C20041340034003490344034003400348034DB
:1022D2004034003400340034413400340034C0341B
:1022E2004034003400347C3442342200AC012D0BE3
:1022F200842A2100CE01CF015808023A031D822A06
:102302000430B531A525913131082100CF002000DC
:1023120030082100CE00B431BE2491319B311C2300
:102322009131B331B3239131B431F02491319D31E4
:10233200DA2591310318C92921005408023A031DF4
:10234200C9292000B4315C2491319D31DA259131C3
:102352000318C9292300B5318B25913103193402A1
:10236200031C362A0230B401B5012100B331D22355
:1023720091318D316C259131B531912591318B316E
:102382003D2391318B316223913122008E11C82974
:102392002100B431BE2491319B311C239131B331E0
:1023A200B3239131B431F02491319D31DA25913149
:1023B200031C332A2100B431BE2491319B311C23EA
:1023C2009131B331B323913123006E082000BB0059
:1023D20023006D082000BA0023006C082000B90019
:1023E20023006B082000B8004030B700B601B501E9
:1023F200B401A231FC229131B5315D2591319D317B
:10240200DA2591310318332A21005408023A031DB8
:10241200332A2000B4315C2491319D31DA25913187
:102422000318332A2300B5318B2591310319340265
:10243200031C362A0330B401B5012100D400023056
:10244200B331D22391318D316C259131B531912542
:1024520091318B313D2391318B31622391312200B5
:102462008E11322A2300B401B5012500670820002D
:10247200DD00250066082000DC002500650820003C
:10248200DB00250064082000DA002100B431BE24FC
:1024920091319B311C239131B331BC2391319D3158
:1024A200DA25913103187F2A21005408023A031DCC
:1024B2007F2A2400CE0A0319CF0A00304F0265306A
:1024C20003194E02031C822A03302100D400240087
:1024D2000530CE01CF012100B331D22391318D31AC
:1024E2006C259131B531912591318B313D2391315B
:1024F2008B316223913122008E117E2A2400CE017B
:10250200CF012200AD01290B08002100CA01CB0135
:102512005808023A031DFD2F0A30B531A525913125
:1025220031082100CB00200030082100CA0025001C
:1025320057082000DD00250056082000DC00250099
:1025420055082000DB00250054082000DA00210095
:102552004B082000B10021004A082000B0009B3146
:102562001C239131B331BC2391319D31DA25913154
:102572000318E42A21005408023A031DE42A240025
:10258200D20A0319D30A03305302E9300319520263
:10259200031CE72A03302100D4000230B331D223D6
:1025A20091318D316C259131B531912591318B313C
:1025B2003D2391318B316223913122008E1124000F
:1025C200D201D301E32A2400D201D301B431712410
:1025D2009131B331FB2391319B311C239131B331C2
:1025E200BC2391319D31DA2591310318FD2A210056
:1025F200540BFD2A0230262BB43171249131B331B0
:10260200FB2391319B311C239131B331BC23913196
:102612009D31DA259131031C2E2B2100540B2E2BD8
:102622002200C701C70A0C17D0302000A3000730D0
:10263200A4008B313D23913122000E108D31D7251C
:10264200913122008C1702302100D4002200BE01F9
:10265200BE0A8E158D31D2259131B431802491314B
:102662009B311C239131B331B3239131B431DF2437
:1026720091319D31DA2591310318422B2200470B0B
:10268200CE2F21005408023A031DCE2F2500B4316B
:10269200232491319B311C239131B331BC239131DD
:1026A2009D31DA259131031CA62F21005408023AEC
:1026B200031DA62F65082200C900210065086707CF
:1026C2002200CA00B5317E259131CB00B5317E257D
:1026D20091316B07CC00B5317E2591316B076D07C7
:1026E2002300C50022004908B331C52391310318E4
:1026F200812B023052020318812BD201D20AD32B32
:1027020022004908B331C5239131031C952B2200C5
:102712004A08B331C52391310318952B0330520275
:102722000318952B0230D02B22004A08B331C5235F
:102732009131031CA92B22004B08B331C5239131DF
:102742000318A92B043052020318A92B0330D02BF3
:1027520022004B08B331C5239131031CBD2B22004B
:102762004C08B331C52391310318BD2B05305202F9
:102772000318BD2B0430D02B22004C08B331C523E3
:102782009131031CD22B23004508B331C52391316B
:102792000318D22B063052020318D22B0530D20076
:1027A200D32BD2012400B43186249131B331FB23DF
:1027B20091319B311C239131B331BC2391319D3135
:1027C200DA2591310318012C023021006E02031820
:1027D200012C2400C00A0319C10A0530B531302585
:1027E2009131CA01CB014102DD3003194002031CC1
:1027F200592D2100EE01EE0A2400C001C101592D1C
:102802002400B431A2249131B331FB2391319B31A5
:102812001C239131B331BC2391319D31DA259131A1
:102822000318432C2400B43186249131B331FB23A5
:1028320091319B311C239131B331BC2391319D31B4
:10284200DA259131031C432C033021006E02031858
:10285200432C2400C20A0319C30A0530C001C10176
:10286200C401C501B531442591314302DD3003195C
:102872004202031C592D02302100EE002400C20145
:10288200C301592D2400B43194249131B331FB2377
:1028920091319B311C239131B331BC2391319D3154
:1028A200DA2591310318852C2400B431A224913108
:1028B200B331FB2391319B311C239131B331BC23C2
:1028C20091319D31DA259131031C852C0430210090
:1028D2006E020318852C2400C40A0319C50A0530A8
:1028E200C201C301C001C101B53144259131450284
:1028F200DD3003194402031C592D03302100EE0080
:102902002400C401C501592D2400B431B0249131F1
:10291200B331FB2391319B311C239131B331BC2361
:1029220091319D31DA2591310318CA2C2400B4313A
:1029320094249131B331FB2391319B311C2391318A
:10294200B331BC2391319D31DA259131031CCA2C5C
:10295200053021006E020318CA2C2400C60A03198E
:10296200C70A0530C201C301C401C501C001C101CA
:10297200C801C901CA01CB014702DD300319460271
:10298200031C592D04302100EE002400C601C701AA
:10299200592D240057082000DD002400560820008D
:1029A200DC00240055082000DB0024005408B33169
:1029B200FB2391319B311C239131B331BC239131E3
:1029C2009D31DA2591310318192D2400B431B02438
:1029D2009131B331FB2391319B311C239131B331BE
:1029E200BC2391319D31DA259131031C192D06301A
:1029F20021006E020318192D2400C80A0319C90AFE
:102A02000530C201C301C401C501C601C701C0012D
:102A1200C101CA01CB014902DD3003194802031C7E
:102A2200592D05302100EE002400C801C901592D9D
:102A3200B431802491319B311C239131B331B323C2
:102A42009131240057082000E1002400560820009C
:102A5200E000240055082000DF0024005408200074
:102A6200DE009D31DA2591310318512D0730210006
:102A72006E020318512D2400CA0A0319CB0A05302D
:102A8200B53130259131C001C1014B02DD3003194E
:102A92004A02031C592D06302100EE002400572D56
:102AA2002400C001C101B53130259131CA01CB01E9
:102AB2003D302000B53139259131913108219131D4
:102AC200B53154259131B7311D279131B5319B254F
:102AD20091319B311C239131B331DC239131A231ED
:102AE200FC229131B43153249131A231912291319E
:102AF2004A08DD004908DC004808DB004708DA0024
:102B02004330B33197239131A231912291318631F1
:102B1200D8269131A231FC229131B5315D25913116
:102B22009D31DA2591310318BB2D3D30B531392560
:102B32009131913108219131B53154259131B7311B
:102B42001D279131B5319B2591319B311C23913148
:102B5200B331DC239131A231FC229131B4315324BF
:102B62009131A23191229131B53111259131C201B8
:102B7200C20ACB2D4330B33197239131A231912236
:102B820091318631D8269131A231FC2291318E3198
:102B9200002691314A082500EB0023004908250050
:102BA200EA00230048082500E90023004708250021
:102BB200E8002100520BEF2D4230B431C62491318E
:102BC2005A082000B700220059082000B60022004F
:102BD20058082000B50022005708462E5208023A33
:102BE200031D052E4230B431C62491315E08200007
:102BF200B70022005D082000B60022005C08200019
:102C0200B50022005B08462E5208033A031D1B2E14
:102C12004230B431C624913162082000B70022004C
:102C220061082000B600220060082000B5002200E2
:102C32005F08462E5208043A031D312E4230B43149
:102C4200C624913166082000B700220065082000E2
:102C5200B600220064082000B50022006308462E58
:102C62005208053A031D592E4230B431C62491311F
:102C72006A082000B700220069082000B60022007E
:102C820068082000B500220067082000B531012540
:102C920091312000B800A231FC229131B431532489
:102CA2009131A23191229131B53111259131602EAC
:102CB200D208031D602E2300B531A02591312100D9
:102CC2006E0B652E3F30802E6E08023A031D6F2E6A
:102CD2003F302000B7003330B600792E6E08033A39
:102CE200031D7B2E3E302000B700E630B600663072
:102CF200B5009C2E6E08043A031D872E3E3020003C
:102D0200B7008030B600B501B4019D2E6E08053AB9
:102D1200031D942E3E302000B7001930B6009930C2
:102D2200B5009A309C2E6E08063A031DA82E3D303F
:102D3200B5316F259131B400B53121259131200093
:102D4200B800A231FC2291318E310026913121004E
:102D5200D7080319DA080319C02E570BB72EDA0861
:102D6200031DB72E550BCF2E0000DE2E5708023A58
:102D7200031DDE2EDA08031DDE2E520BCA2E3F3053
:102D82002000B700B601B501B401B531212591315A
:102D9200D62E02305202031CDE2EB32E3D30B53148
:102DA2006F259131B531012591312000B800A23152
:102DB200FC2291318E31002691312100560BE82EF2
:102DC200DA08031DE82E2300B531A0259131220037
:102DD200C730C001C00A2100A0000130A1004B0889
:102DE200A3004A08A2009B31302391312308250019
:102DF200A300210022082500A200210021082500AD
:102E0200A100210020082500A00023082000CA00FC
:102E1200250022082000C900250021082000C80042
:102E2200250020082000C700210043082000CE0012
:102E3200210042082000CD00210041082000CC00E2
:102E4200210040082000CB009E311A2691314A0809
:102E52002100C300200049082100C20020004808C8
:102E62002100C100200047082100C00043082000C3
:102E7200DD00210042082000DC0021004108200082
:102E8200DB00210040082000DA004330E100F4308A
:102E9200E000DF01DE019D31DA259131031C562F5E
:102EA20043302100C300F430752F4030DD00A030E4
:102EB200DC00DB01DA01210043082000E1002100EF
:102EC20042082000E000210041082000DF0021002C
:102ED20040082000DE009D31DA259131031C782F55
:102EE20040302100C300A030C200C101C001210056
:102EF20043082000DD00210042082000DC00210000
:102F020041082000DB00210040082000DA008E3159
:102F1200742691315B082100C50020005A08210067
:102F2200C40023004A08490448044704031D9C2F97
:102F32002100C401C5012100B431022491318D3137
:102F42006C2591312300C201CA2F2500B4312324FC
:102F520091319B311C239131B331BC2391319D318D
:102F6200DA2591310318CA2F21005408023A031DB1
:102F7200CA2F003045020B3003194402031CC42F30
:102F8200FF30C407C53DB431022491318D316C2527
:102F920091312400BC01BD01FD2FB4318024913157
:102FA2009B311C239131B331B3239131B431DF24EE
:102FB20091319D31DA2591310318CA2F210054082D
:102FC200023A031DCA2F2400BC0A0319BD0A0730A6
:102FD2003D02D13003193C02031CFD2F03302100B6
:102FE200D4000230B331D22391318D316C2591312D
:0E2FF2002400BC01BD01FC2F2200A901080033
:10334400B431802499311C23B331B3239931372705
:103354009931DA25993103181E2A21005308033ABA
:10336400031D1E2A2300C308031DE5292508210087
:103374004902031DC129230024082100480203181F
:10338400F3292300C301C30A2100752799311C23A3
:103394009931A3279931C030D82799311A26993108
:1033A400AC278E31742699317D279931003047023C
:1033B40033300319460203180F2A3230C600C701FE
:1033C4002300C3010F2A250821004902031DEE2909
:1033D40023002408210048020318C7292300C3013D
:1033E4002100752799311C239931A3279931403045
:1033F400D82799311A269931AC278E317426993100
:103404007D27993103304702843003194602031C97
:103414000F2A8430C6000330C70021006D278D3188
:10342400A72599312100752799311C2399315327F8
:103434002400BE01BF010800B431802499311C234B
:10344400B331B3239931230066082000E10023003F
:1034540065082000E000230064082000DF0023004A
:1034640063082000DE00DA259931031C622A69080A
:10347400B1006808B0001C23B331B3239931042789
:103484009931DA2599310318622A21005308033A45
:10349400031D622A2400BE0A0319BF0A00303F023A
:1034A400643003193E02031C08000430BE01BF014E
:1034B4002100D300752799311C2399315327080023
:1034C400B431802499311C23B331B32399310427B7
:1034D4009931DA25993103181A2A21005308043A3C
:1034E400031D1A2A02302200C000AC302100A000C3
:1034F4000230A100200069082100A3002000680810
:103504002100A2003023993123082500A3002100C3
:1035140022082500A200210021082500A100210085
:1035240020082500A00023082000CA002500220846
:103534002000C900250021082000C800250020081B
:103544002000C700210043082000CE0021004208CB
:103554002000CD00210041082000CC0021004008BB
:103564002000CB001A2699314A082100C30020000C
:1035740049082100C200200048082100C1002000A1
:1035840047082100C00043082000DD002100420854
:103594002000DC00210041082000DB00210040085D
:1035A4002000DA004430E1006130E000DF01DE0198
:1035B400DA259931031CE32A44302100C300613029
:1035C400012B4230DD004830DC00DB01DA01210050
:1035D40043082000E100210042082000E00021000F
:1035E40041082000DF00210040082000DE00DA2529
:1035F4009931031C042B42302100C3004830C2001F
:10360400C101C001210043082000DD00210042085F
:103614002000DC00210041082000DB0021004008DC
:103624002000DA008E31742699317D2799316D2777
:103634008D31A72D3008A3003108A4009630A501D0
:10364400A601A700A801A3316A232608B300250810
:10365400B2002408B1002308B00008004130B700CC
:103664002030B600B501B40123082000AE002100CB
:1036740022082000AD00A631672699313008D90010
:103684002F08D8002E08D7002D08D6004D279931D1
:1036940085279931E427993159082100BF0020007A
:1036A40058082100BE00200057082100BD0020005A
:1036B40056082100BC002300420B892B4030200017
:1036C400DD00DC01E1269931DA259931031C742BE4
:1036D4002100F4269931C030CD279931DA2599316A
:1036E4000318CC2B2100F42699314030B5279931A9
:1036F400DA2599310318B02BC030DD008030DC00AE
:10370400E1269931DA259931031CEB2BB02B2200E9
:10371400400BB52B3F3048279931E1269931DA2502
:103724009931031C9F2B2100F4269931BF30B52712
:103734009931DA2599310318CC2B2100F4269931DB
:10374400D2279931DA2599310318B02BC030DD0026
:103754004030DC00E1269931DA25993143302100EB
:10376400B7004830E82B4008023A031DEB2B3F30EA
:1037740048279931E1269931DA259931031CD22B56
:103784002100F4269931BF30B5279931DA259931D2
:10379400031CD22B2100BC01BD01BE01BF01EB2BD8
:1037A4002100F4269931BB279931DA259931031880
:1037B400E42BC030DD00DC01E1269931DA259931B2
:1037C400031CEB2B42302100B700C830B600B50112
:1037D400B40121003F082000CA0021003E08200057
:1037E400C90021003D082000C80021003C08200039
:1037F400C7004D2799315831403F2000CB00413F4D
:10380400CC00423FCD00433FCE001A2699314D27CC
:103814009931583120004708C03F4808C13F490842
:10382400C23F4A08C33F4D2799315831403F2000D9
:10383400DA00413FDB00423FDC00433FDD00BB27B1
:103844009931DA259931031C2D2C210099279931BE
:103854004030C33F472CC030DD00DC01DB01DA011E
:103864004D2799315831403F2000DE00413FDF00B1
:10387400423FE000433FE100DA259931031C472C25
:10388400210099279931C030C33F4D2799315431D4
:10389400403F2000D600413FD700423FD800433F7D
:1038A400D9004D279931503185279931E427993131
:1038B40059082100AB00200058082100AA0020006C
:1038C40057082100A900200056082100A800C1279C
:1038D4009931403FA400413FA500423FA600433F29
:1038E400A700200886002108870054312408C03F1F
:1038F4002508C13F2608C23F2708C33FC127993185
:103904003C08C03F3D08C13F3E08C23F3F08C33F9B
:103914002000B70021003E082000B60021003D0829
:103924002000B50021003C082000B4004D27993147
:1039340044316327A231FC22993137082100AF00BA
:10394400200036082100AE00200035082100AD001B
:10395400200034082100AC002008860021088700DC
:103964005831403F2000B400413FB500423FB6000B
:10397400433FB7004D27993148316327A231FC22D8
:1039840099318F2737082000B7002100360820001E
:10399400B600210035082000B500210034082000BD
:1039A400B40021002F082000BB0021002E082000B5
:1039B400BA0021002D082000B90021002C082000A5
:1039C400B800A231FC2299313708CE003608CD0068
:1039D4003508CC003408CB001A2699314A08210056
:1039E400B300200049082100B2002000480821004B
:1039F400B100200047082100B0002B082000B700C8
:103A040021002A082000B600210029082000B50062
:103A1400210028082000B4004D2799314C31632738
:103A2400A231FC2299318F27993133082000CE002E
:103A3400210032082000CD00210031082000CC00F4
:103A4400210030082000CB001A2699314A082100B1
:103A5400BB00200049082100BA00200048082100CA
:103A6400B900200047082100B800F4269931D22774
:103A74009931DA259931031C492D4030DD00A030FD
:103A8400DC00E1269931DA25993103185D2DC03027
:103A9400DD004030DC00E1269931DA259931031C40
:103AA400692D2100F4269931C030C7279931DA25D0
:103AB4009931031C692D21003B0815279931BB2737
:103AC4009931DA2599310318A82DC030AB2D403037
:103AD400DD00A030DC00E1269931DA259931031CA0
:103AE4007D2D2100F4269931C030C7279931DA257C
:103AF400993103189A2D21003B081527993140303C
:103B0400C7279931DA259931031C8A2D4030952D28
:103B1400C030DD00A030DC0024279931DA2599314A
:103B2400031CD02DC0302100BB00A030BA00CE2D24
:103B3400210055080319B52D3B08152799313F304D
:103B4400CD279931DA259931031CAA2D4030CB2D8C
:103B5400BF30DD00DC0124279931DA259931031CBB
:103B6400D02DC030CB2D3B08152799313F30CD27C0
:103B74009931DA259931031CC12D3F30CB2DBF304B
:103B8400DD00DC0124279931DA259931031CD02D7D
:103B9400BF302100BB00BA01B901B80121003B08C4
:103BA400A3003A08A2003908A1003808A0000800C0
:103BB400DD1FF12D8030E201E301E401E5005A0844
:103BC400E2025B08E33B5C08E43B5D08E53B650817
:103BD400DD006408DC006308DB006208DA00E11F32
:103BE400082E8030E201E301E401E5005E08E20210
:103BF4005F08E33B6008E43B6108E53B6508E100DE
:103C04006408E0006308DF006208DE008030DD063F
:103C1400E10661085D02031D080060085C02031DE3
:103C240008005F085B02031D08005E085A020800D2
:103C34004708CF004808D0004908D1004A08D200FC
:103C44000310510D520DD5004B08CF004C08D00085
:103C54004D08D1004E08D2000310510D520DD4006E
:103C640055080319412E54085502540803184B2EC5
:103C7400CF005508CF0221304F02031C4A2E4E08B4
:103C8400CA004D08C9004C08C8004B08C70008000A
:103C9400540803190800550854020318592E5508EE
:103CA400CF005408CF0221304F0203180800063019
:103CB400D300CA1BD317CE1B5317C917CA01CD177C
:103CC400CE01540855020318802ECB35CC0DCD0DF2
:103CD400CE0DD4035408550603197B2ED303530881
:103CE400073903197B2E672ECA36C90CC80CC70CBA
:103CF400D50A5508540603199C2E762E55085402ED
:103D040003189C2EC735C80DC90DCA0DD503540818
:103D140055060319982ED303530807390319982E0F
:103D2400842ECE36CD0CCC0CCB0CD40A55085406BC
:103D3400031D932ED31FAA2EFF30C706C806C9063B
:103D4400CA06C70A0319C80A0319C90A0319CA0A01
:103D5400531FB52EFF30DE2799310319CC0A0319FE
:103D6400CD0A0319CE0AD3014708CB074808CC3D36
:103D74004908CD3D4A08CE3DCE1FCA2EFF30DE276E
:103D84000319CC0A0319CD0A0319CE0AD301D30AA5
:103D94004E08A6004D08A5004C08A4004B08A3003B
:103DA4005508A7005308A800A3316A232608CA00AF
:103DB4002508C9002408C8002308C7000800DB013F
:103DC400DA0121003F082000E10021003E08200024
:103DD400E00021003D082000DF0021003C08200015
:103DE400DE0008003F082000DD0021003E0820001E
:103DF400DC0021003D082000DB0021003C082000FD
:103E0400DA000800220056082000E10022005508CC
:103E14002000E000220054082000DF0022005308A4
:103E24002000DE0008002000DD0021003A08200008
:103E3400DC00210039082000DB00210038082000C4
:103E4400DA000800DB01DA0121003B082000E10070
:103E540021003A082000E000210039082000DF009A
:103E6400210038082000DE00080023006A08200032
:103E7400E100230069082000E00023006808200016
:103E8400DF00230067082000DE0008002000DD00BA
:103E94008030DC000800210020088600210887000B
:103EA400080033082100C300200032082100C200AA
:103EB400200031082100C100200030082100C0008A
:103EC4000800403F2000B800413FB900423FBA001B
:103ED400433FBB00080047082000A4002100460817
:103EE4002000A300080047082000B1002100460874
:103EF4002000B00008005B082100C70020005A0819
:103F04002100C6000800403F2000DA00413FDB00EA
:103F1400423FDC00433FDD0008003708CA00360892
:103F2400C9003508C8003408C7002100080020086B
:103F340086002108870000305831C03FC13FC23F8E
:103F440008003308CE003208CD003108CC00300818
:103F5400CB0008004A08DD004908DC004808DB0003
:103F64004708DA000800E1008030E000DF01DE01EC
:103F740008004030E100E001DF01DE010800200814
:103F840086002108870050310800E100A030E000DD
:103F9400DF01DE010800E100E001DF01DE010800CD
:103FA4004030E100E000DF01DE010800CA00A0307B
:103FB400C900C801C7010800CB06CC06CD06CE0651
:103FC400CB0A08008030D9065908CA005808C9002D
:103FD4005708C8005608C7005D08CE005C08CD002D
:103FE4005B08CC005A08CB001A264A08D9004908B5
:0C3FF400D8004808D7004708D600080095
:1043A0002000181422002030C801C80AB701B70A3B
:1043B000B901B90ABA01BA0ABB01BB0ABC01BC0AFD
:1043C000BD01BD0AB801B80AEE278D319725A1318C
:1043D000F3278D319725A131C730AB000130AC00F8
:1043E0008D319725A131BC269E311A26A131BF27D8
:1043F000A1317527B3319723A13191228631D82677
:10440000A131FC228E3100262200BE012300B8011A
:10441000B901BA01BB01B601B7012100CC01CD0140
:104420002200C701080064302000A300A4018B31E2
:104430003D23A1310A3050262100EC000C30B5316B
:10444000A525A1313108E9003008E8004130B70066
:10445000F830B6005130B500EC30B4004430CA003A
:104460007A30C900C801C7016908B1006808B00006
:104470009B311C23A1318631E126A1319122863165
:10448000D826A131FC22A13137082100AD0020003F
:1044900036082100AC00200035082100AB002000C8
:1044A00034082100AA006C0B692A2D08A9279D3128
:1044B000DA25A131031C672A413091279D31DA2585
:1044C000A131031C672A2100E0278B31672B0000F4
:1044D00008006C08023A031D7F2A2D08A9279D3188
:1044E000DA25A131031C672A413091279D31DA2555
:1044F000A131031C672A2100E0278B31672B2D088F
:10450000A9279D31DA25A131031C672A4130912763
:104510009D31DA25A131031C672A2100E0278B3168
:10452000672B4B08CF004C08D0004D08D1004E0837
:10453000D2000310510D520DD800D808031DA22A35
:10454000C701F82F4708CF004808D0004908D1001C
:104550004A08D2000310510D520DD900D908031D8D
:10456000B32AC701F82F89305907CF00D8024E0867
:10457000D9004A08D9068030D9052030CD17CE01A0
:10458000C917CA01D700D335D40DD50DD60D4A08A9
:104590004E02031DD52A49084D02031DD52A48089D
:1045A0004C02031DD52A47084B02031CE02A47088A
:1045B000CB024808CC3B4908CD3B4A08CE3B5314BC
:1045C000CB35CC0DCD0DCE0DD70BC32A5608A6008A
:1045D0005508A5005408A4005308A3005808A700D4
:1045E0005908A8006A232608CA002508C90024081B
:1045F000C8002308C70008003408BC003508BD0007
:104600003608BE003708BF0003103E0D3F0DC00046
:10461000C008031D0D2BB401FC2F3808BC0039085D
:10462000BD003A08BE003B08BF0003103E0D3F0D21
:10463000C600C608031D1E2BB401FC2F46087B3E96
:10464000C0073708C6003B08C6068030C605FF30E5
:10465000B617BA17B805B905BA050730BB01C101CD
:10466000C201C301C401C500341C392B3808E62738
:10467000A131B736B60CB50CB40CB835B90DBA0DBE
:10468000BB0DC50B342B1130C500341C4A2B380828
:10469000E627A131B736B60CB50CB40CC436C30C42
:1046A000C20CC10CC50B452B4408A6004308A5004D
:1046B0004208A4004108A3004008A7004608A8003B
:1046C0006A232608B7002508B6002408B500230889
:1046D000B400080027080319732B260825042404B6
:1046E0002304031D7D2BA301A401A501A60108003D
:1046F000A70AA636A50CA40CA30CFE3026050319A8
:104700008E2B782BA70AA30A0319A40A0319A50A5A
:104710000319A60AA636A50CA40CA30CFF30260587
:104720000319982B822BA703A335A40DA50DA60D65
:10473000A51F932B2718A32BFF30A305A4057F30BB
:10474000A505FF30A605A7362708AC00AB01AA01D6
:10475000A9012908A3042A08A4042B08A5042C08ED
:10476000A6042808031DA617080000305026A13112
:104770002000DA0001305026A1318927A1316726B7
:10478000A13130082100E00020002F082100DF00C7
:1047900020002E082100DE0020002D082100DD0071
:1047A00002305026A1312000DA0003305026A1311A
:1047B0008927A1316726A13130082100E4002000BB
:1047C0002F082100E30020002E082100E200200035
:1047D0002D082100E10004305026A1312000DB002B
:1047E0008426A13130082200DA0020002F082200A0
:1047F000D90020002E082200D80020002D08220019
:10480000D70005305026A1312000DB008426A131DD
:1048100030082200DE0020002F082200DD002000EA
:104820002E082200DC0020002D082200DB000630CC
:104830005026A1312000DB008426A131300822005F
:10484000E20020002F082200E10020002E082200B4
:10485000E00020002D082200DF0007305026A131A3
:104860002000DB008426A13130082200E600200071
:104870002F082200E50020002E082200E40020007E
:104880002D082200E30008305026A1312000DB0073
:104890008426A13130082200EA0020002F082200DF
:1048A000E90020002E082200E80020002D08220048
:1048B000E70009305026A1312000DB005B08210011
:1048C000ED000A305026A1312000DB005B082100FA
:1048D000EC000B305026A1312000DB002100DB0072
:1048E0000C30DC015026A1312000DB002100E50066
:1048F0000D30E6015026A1312000DB002100E70049
:104900000E30E8015026A1312000DB002100E90033
:104910000F30EA015026A1312000DB002200EB001D
:104920001030EC015026A1312000DB002200ED0008
:104930001130EE015026A1312000DB00EB00083ED3
:10494000073909070907123E50262000DA0087318F
:104950000D27A131133E5026A1318927A1316726A9
:1049600030082400A30020002F082400A20020000B
:104970002E082400A10020002D082400A000200003
:1049800087310D27A131143E50262000DA008731EF
:104990000D27A131153E5026A1318927A131672667
:1049A00030082400A70020002F082400A6002000C3
:1049B0002E082400A50020002D082400A4002000BB
:1049C0008731A827A131123E50262000DA00873116
:1049D000A827A131133E5026A1318927A13167268E
:1049E0008731A827A131143E50262000DA008731F4
:1049F000A827A131153E5026A1318927A13167266C
:104A00008731AE27A131123E50262000DA008731CF
:104A1000AE27A131133E5026A1318927A131672647
:104A20008731AE27A131143E50262000DA008731AD
:104A3000AE27A131153E5026A1318927A131672625
:104A40008731A227A131123E50262000DA0087319B
:104A5000A227A131133E5026A1318927A131672613
:104A60008731A227A131143E50262000DA00873179
:104A7000A227A131153E5026A1318927A1316726F1
:104A800087319C27A131123E50262000DA00873161
:104A90009C27A131133E5026A1318927A1316726D9
:104AA00087319C27A131143E50262000DA0087313F
:104AB0009C27A131153E5026A1318927A1316726B7
:104AC00087318A27A131123E50262000DA00873133
:104AD0008A27A131133E5026A1318927A1316726AB
:104AE00087318A27A131143E50262000DA00873111
:104AF0008A27A131153E5026A1318927A131672689
:104B000087319027A131123E50262000DA008731EC
:104B10009027A131133E5026A1318927A131672664
:104B200087319027A131143E50262000DA008731CA
:104B30009027A131153E5026A1318927A131672642
:104B400087319627A131123E50262000DA008731A6
:104B50009627A131133E5026A1318927A13167261E
:104B600087319627A131143E50262000DA00873184
:104B70009627A131153E5026A1318927A1316726FC
:104B8000A13136305026A1312000DB005B08210026
:104B9000D70037305026A13138305026A1312000BF
:104BA000DB00EA00EA08031DD92D04302100DA00F9
:104BB000DB2D2100DA0139305026A1312000DB0045
:104BC0002100D6005C085B04031DED2D230001309D
:104BD000A301A201A100F4300C2E5B082000A30069
:104BE00021005C082000A4000430A501A601AA0150
:104BF000A901A8003830A7009726A1312608230074
:104C0000A300200025082300A20020002408230080
:104C1000A100200023082300A00021006D034330E1
:104C2000031D462E2400FC26A1312000CA0074304A
:104C3000C9004130C801C701B7002030B600B50136
:104C4000B401210060082000BB0021005F082000A3
:104C5000BA0021005E082000B90021005D08200094
:104C6000B800FC22B4315324A1319122A1314A0869
:104C70002500E300200049082500E2002000480844
:104C80002500E100200047082500CF2F2400FC2646
:104C9000A131E300A330E200EF30E1003730CF2F45
:104CA0002000A300542E2000640023009518532EEA
:104CB000200023082300910092013F309505151430
:104CC0000310151803140030093D13080800B10142
:104CD000AE1F702EAD09AE09AD0A0319AE0AB10AB6
:104CE0002D08A3002E08A4009630A501A601A70058
:104CF0003108A8006A232608B0002508AF00240860
:104D0000AE002308AD0008002000B200A3009630DA
:104D1000A401A501A601A700A8016A232608B000E6
:104D20002508AF002408AE002308AD000800AB0141
:104D3000AC01AD01AE01231CA52E2708AB07280846
:104D4000AC3D2908AD3D2A08AE3DA735A80DA90DFB
:104D5000AA0DA636A50CA40CA30C26082504240431
:104D60002304031D9B2E2E08A6002D08A5002C0849
:104D7000A4002B08A30008003A302600A7008330C7
:104D8000A6001230A5006F30A4004230A801A9018E
:104D9000AA01AB01AC01AD01AE01AF01A300963099
:104DA000A2003A30A101A0012500B3008330B20077
:104DB0001230B1006F30B0003F30B401B501B60120
:104DC000B701B801B901BA01BB012000CA008030A7
:104DD000C900C801C701230066082000CE002300D7
:104DE00065082000CD00230064082000CC002300CB
:104DF00063082000CB000800E700BE30E600133057
:104E0000E500CB30E4004330E300B630E20005308B
:104E1000E100F030E0004330DF00AD30DE00F8307C
:104E2000DD001530DC004330DB00A530DA00EA306D
:104E3000D9003A30D8004330D7009030D600F9304E
:104E4000D5006730D40043302200D600C630D500EC
:104E5000EF30D400D630D30043302300EA00C33013
:104E6000E900B730E8001830E70043302400EB00D9
:104E70009030EA00F930E9006730E800433025005F
:104E8000D3009930D2000730D1004230D0004330F7
:104E90002300E600C430E5008530E4004730E3003D
:104EA00042302500CF009630CE004230CD01CC01FB
:104EB0002300EE00F530ED00E630EC00D230EB00E0
:104EC00044302500E7007A30E6004430E501E40193
:104ED000D7003430D6004430D501D401DB00203077
:104EE000DA004230D901D80108003A302300CE0060
:104EF0008330CD001230CC006F30CB004330CF0177
:104F0000D001D101D201D301D401D501D6012000B5
:104F100008002000DB005A08AE00AD015B08AD04BC
:104F20000800DD004930DC009930DB009A30DA00FF
:104F300021002D082000E10021002C082000E000C5
:104F400021002B082000DF0021002A082000DE00BD
:104F500008002000DD0021002C082000DC002100DA
:104F60002B082000DB0021002A082000DA00403056
:104F7000E100F030E0000030DF01DE0108004A0807
:104F80002500AF00200049082500AE002000480899
:104F90002500AD00200047082500AC000800E00017
:104FA0004330DF002330DE00EF30DD003730DC003F
:104FB0004230CB002430CA000030C901C8010800CB
:104FC000ED01ED0A6D082000E4000934C10739083D
:104FD000C23D3A08C33D3B08C43D08002000AB0079
:104FE0000330AC000800AC30AB000230AC0008006D
:104FF000C801C901CA010800B501B601B70108001E
:10531000280B8B29A8012A0BBE290130B531A52500
:10532000A93131082200A500200030082200A40085
:1053300000302502053003192402031CB229023073
:1053400025025A30031924020318B22923000A3017
:10535000C60AC4014602031CBC29C6012200EF0193
:10536000EF0ABC2923000A30C40AC6014402031C08
:10537000BC29C4012200EF012200AA012B0B112B32
:105380000230B531A525A93131082100D100200016
:1053900030082100D0002200C108031D562A250034
:1053A000B4313B24A9319B311C23A931B331BC2337
:1053B000A9319D31DA25A931031C082A2400B40A39
:1053C0000319B50A0319B60A0319B70A2500A4017F
:1053D000A501A601A7012400370823002302031D0D
:1053E000012A2400360823002202031D012A24007A
:1053F000350823002102031D012A2400340823005C
:1054000020020318562A2400B5317625A931562AE0
:1054100025005F082000DD0025005E082000DC007C
:1054200025005D082000DB0025005C082000DA0074
:1054300087310427A9319B311C23A931B331BC2307
:10544000A9319D31DA25A9310318532A2500A40A70
:105450000319A50A0319A60A0319A70A2400B4010F
:10546000B501B601B7012500270823002302031D5B
:10547000492A2500260823002202031D492A250067
:10548000250823002102031D492A250024082300A2
:1054900020020318562A2500A401A501A601A70190
:1054A0002200C201562A8631EA26A9318731042713
:1054B000A9319B311C23A931B331B323A931250074
:1054C0005F082000E10025005E082000E0002500C4
:1054D0005D082000DF0025005C082000DE009D3113
:1054E000DA25A9310330031CC22A21005102E83019
:1054F000031950020318C12A2500A80A0319A90A92
:105500000319AA0A0319AB0A05302000A300A4015D
:10551000A501A601230023082000AA0023002208D9
:105520002000A900230021082000A8002300200853
:105530002000A70088312E20A93125002B0820004B
:105540002602031DB32A25002A0820002502031D78
:10555000B32A2500290820002402031DB32A2500B0
:105560002808200023020318D32A2500B5318425FA
:10557000A931C20A8631EA26A9312200C101C10A35
:10558000D32A033021005102E83003195002031CD2
:10559000CE2A2500B5318425A931D32A2500A801BA
:1055A000A901AA01AB012200410B0F2B2500B43148
:1055B0003B24A9319B311C23A931B331BC23A93130
:1055C0009D31DA25A931031C0A2B2400B40A0319E2
:1055D000B50A0319B60A0319B70A370823002302CC
:1055E000031D022B2400360823002202031D022B78
:1055F0002400350823002102031D022B2400340857
:105600002300200203180F2B2400B5317625A93181
:10561000C1010F2B2400B401B501B601B70122006E
:10562000AB012E0B4C2B2100C801C901580B4A2B92
:105630000930B531A525A93131082100C900200064
:1056400030082100C80049088731DB27A9319B3188
:105650001C23A931B331B323A931B431CE24A931EC
:105660009D31DA25A931031C4A2B03302100530256
:10567000031C4A2B00304702333003194602031C37
:10568000442BFF30C607C73D9F316D27A9318D31AF
:10569000A725A9312200AE0191312C0B78290C30BD
:1056A000B531A525A9313108E9003008E8004130BD
:1056B000B700F830B6005130B500EC30B4004130DE
:1056C000CA002030C900C801C7016908B1006808D4
:1056D000B0009B311C23A9318631E126A931A231CA
:1056E0009122A9318631D826A931A231FC22A931D3
:1056F00037082200A300200036082200A200200064
:1057000035082200A100200034082200A000B43196
:105710008024A9319B311C23A931B331B323A93192
:10572000B5316625A93191310821A931B5319625C8
:10573000A931A6316726A931B4310A24A9319E3195
:105740001A26A931B5314B25A9319D31DA25A93168
:10575000031CAD2B2200470BBF2B2100D308031DD8
:10576000BF2B23006430C00A4002031CEF2BC00192
:105770002100D301D30A2200A701A70AEF2BB431DD
:105780008024A9319B311C23A931B331B323A93122
:10579000B5316625A93191310821A931B531962558
:1057A000A931A6316726A931B4310A24A9319E3125
:1057B0001A26A931B5314B25A9319D31DA25A931F8
:1057C000031CEF2B0230210053020318EF2B2200A1
:1057D000C708031DEF2B2300C0012200A701B4312D
:1057E0008024A9319B311C23A931B331B323A931C2
:1057F0009F313727A9319D31DA25A93103180C2CA7
:1058000021005308023A031D0C2C0330D3009031C1
:10581000C920A93191317629B4318024A9319B3135
:105820001C23A931B331B323A9319F313727A931C3
:105830009D31DA25A931031C332C21005308023A8B
:10584000031D332C220023082400A7002200220875
:105850002400A600220021082400A5002200200820
:105860002400A4000A2CB4318024A9319B311C23CC
:10587000A931B331B323A9319F310427A9319D3117
:10588000DA25A93103187C2C033021005302031CB4
:105890007C2C49088731DB27A9319B311C23A93196
:1058A000B331B323A931B431CE24A9319D31DA25E6
:1058B000A9310318782C033021005302031C782CE3
:1058C0002400D00A0319D10A00305102063003190E
:1058D0005002031C782CD001D1019931A221A931A9
:1058E000210049082300A500210048082300A40046
:1058F0002400CC01CD010A2CB4318024A9319B3184
:105900001C23A931B331B323A9319F310427A93115
:105910009D31DA25A931031C0A2C033021005302E2
:10592000031C0A2C2400CC0A0319CD0A00304D02B6
:10593000C93003194C02031C0A2C0330CC01CD01E1
:1059400021005302031C0A2C0530D3008D31A12500
:10595000A9312000A301A4018D31A725A931AF2CC5
:1059600086318D2E28002108A13A031DFE2F2130FB
:105970008731F127AC3188310320AC312408E700AE
:105980008731CF27AC31031DFE2F42308731BB2733
:10599000AC3187310427AC319B311C23AC318631CB
:1059A000E126AC31A2319122AC318631D826AC311E
:1059B000A231FC22AC3137082400BB00200036089D
:1059C0002400BA00200035082400B9002000340863
:1059D0002400B80041302000B700F830B600513044
:1059E000B500EC30B4004130CA002030C900C80115
:1059F000C7016908B1006808B0009B311C23AC31B5
:105A00008631E126AC31A2319122AC318631D826E3
:105A1000AC31A231FC22AC3137082200A3002000B7
:105A200036082200A200200035082200A100200034
:105A300034082200A00042308731BB27AC3121005E
:105A4000B431BE24AC319B311C23AC318631E1260C
:105A5000AC31A2319122AC318631D826AC31A231A1
:105A6000FC22AC3137082400B300200036082400A3
:105A7000B200200035082400B100200034082400C2
:105A8000B0003E302000CA001930C9009930C8006B
:105A90009A30C700210049088731DB27AC319B31A0
:105AA0001C23AC318631E126AC31A2319122AC31DC
:105AB0004A082400AB00200049082400AA00200066
:105AC00048082400A900200047082400A8003F300F
:105AD0002000CA00CC30C900C800CD30C70021006A
:105AE0004B082000B10021004A082000B0009B3183
:105AF0001C23AC318631E126AC31A2319122AC318C
:105B00004A082400AF00200049082400AE0020000D
:105B100048082400AD00200047082400AC00210004
:105B20006D0EF03958042200C60055302700A00041
:105B3000B130A10024003B082000CE0024003A0828
:105B40002000CD00240039082000CC0024003808B3
:105B50008631C626AC31A2319122AC318631CF26B6
:105B6000AC318E317426AC315A082700A2002400D3
:105B70003B082000DD0024003A082000DC0024005F
:105B800039082000DB00240038082000DA008E31BC
:105B90007426AC315A082700A300220023082000F5
:105BA000CE00220022082000CD0022002108200083
:105BB000CC00220020088631C626AC31A2319122C9
:105BC000AC318631CF26AC318E317426AC315A08D7
:105BD0002700A400220023082000DD002200220864
:105BE0002000DC00220021082000DB002200200829
:105BF0002000DA008E317426AC315A082700A50047
:105C0000240033082000CE00240032082000CD00FC
:105C1000240031082000CC00240030088631C6263C
:105C2000AC31A2319122AC318631CF26AC318E31EC
:105C30007426AC315A082700A6002400330820003F
:105C4000DD00240032082000DC00240031082000A0
:105C5000DB00240030082000DA008E317426AC31DD
:105C60005A082700A70024002B082000CE0024009B
:105C70002A082000CD00240029082000CC002400A0
:105C800028088631C626AC31A2319122AC3186314A
:105C9000CF26AC318E317426AC315A082700A800CB
:105CA00024002B082000DD0024002A082000DC004E
:105CB000240029082000DB00240028082000DA0046
:105CC0008E317426AC315A082700A90024002F0811
:105CD0002000CE0024002E082000CD0024002D0836
:105CE0002000CC0024002C088631C626AC31A2311D
:105CF0009122AC318631CF26AC318E317426AC3155
:105D00005A082700AA0024002F082000DD002400E4
:105D10002E082000DC0024002D082000DB002400D9
:105D20002C082000DA008E317426AC315A08270086
:105D3000AB00220046082700AC00AD01AE012100F7
:105D40004B082700AF0021004A082700B0002200BE
:105D500025082700B100220024082700B2002000F7
:105D600087310D27AC31123EA6315026AC312700C9
:105D7000B300200087310D27AC31133EA6315026E9
:105D8000AC312700B400200087310D27AC31143E20
:105D9000A6315026AC312700B500200087310D27F1
:105DA000AC31153EA6315026AC312700B60020009C
:105DB0008731A827AC31123EA6315026AC312700DE
:105DC000B70020008731A827AC31133EA6315026FA
:105DD000AC312700B80020008731A827AC31143E31
:105DE000A6315026AC312700B90020008731A82702
:105DF000AC31153EA6315026AC312700BA00200048
:105E00008731AE27AC31123EA6315026AC31270087
:105E1000BB0020008731AE27AC31133EA63150269F
:105E2000AC312700BC0020008731AE27AC31143ED6
:105E3000A6315026AC312700BD0020008731AE27A7
:105E4000AC31153EA6315026AC312700BE002000F3
:105E50008731A227AC31123EA6315026AC31270043
:105E6000BF0020008731A227AC31133EA631502657
:105E7000AC312700C00020008731A227AC31143E8E
:105E8000A6315026AC312700C10020008731A2275F
:105E9000AC31153EA6315026AC312700C20020009F
:105EA00087319C27AC31123EA6315026AC312700F9
:105EB000C300200087319C27AC31133EA631502609
:105EC000AC312700C400200087319C27AC31143E40
:105ED000A6315026AC312700C500200087319C2711
:105EE000AC31153EA6315026AC312700C60020004B
:105EF00087318A27AC31123EA6315026AC312700BB
:105F0000C700200087318A27AC31133EA6315026C6
:105F1000AC312700C800200087318A27AC31143EFD
:105F2000A6315026AC312700C900200087318A27CE
:105F3000AC31153EA6315026AC312700CA002000F6
:105F400087319027AC31123EA6315026AC31270064
:105F5000CB00200087319027AC31133EA63150266C
:105F6000AC312700CC00200087319027AC31143EA3
:105F7000A6315026AC312700CD0020008731902774
:105F8000AC31153EA6315026AC312700CE002000A2
:105F900087319627AC31123EA6315026AC3127000E
:105FA000CF00200087319627AC31133EA631502612
:105FB000AC312700D000200087319627AC31143E49
:105FC000A6315026AC312700D1002000873196271A
:105FD000AC31153EA6315026AC312700D2008731B6
:105FE000EB27AC313230A50088310320AC3187314A
:105FF000C827D3007C08D400AA30D5008631A12E52
:10672E00B7002030B6004230B501B401CA00C830FF
:10673E00C900C801C701210064082000CE00210055
:10674E0063082000CD00210062082000CC0021004B
:10675E0061082000CB0008003308DD003208DC00A1
:10676E003108DB003008DA0008003308E100320897
:10677E00E0003108DF003008DE0008002000E600EF
:10678E00E701670821004D02031D0800200066087E
:10679E0021004C020800C400C50145082000A400D9
:1067AE00210044082000A30008003308CA00320864
:1067BE00C9003108C8003008C7004330B700203088
:1067CE00B600B501B40125004B082000BB00250022
:1067DE004A082000BA00250049082000B90025000B
:1067EE0048082000B80008002000DA006908B1004F
:1067FE006808B000080045082000A40021004408E5
:10680E002000A30008003008CE002F08CD002E086F
:10681E00CC002D08CB00220056082000CA00220012
:10682E0055082000C900220054082000C80022008C
:10683E0053082000C70008005B082000DD0025007B
:10684E005A082000DC00250059082000DB00250036
:10685E0058082000DA0021004B082000B10021006A
:10686E004A082000B000080063082000DD00250063
:10687E0062082000DC00250061082000DB002500F6
:10688E0060082000DA00210051082000B10021002C
:10689E0050082000B00008003708CE003608CD00A2
:1068AE003508CC003408CB000800DA01DB01DC012E
:1068BE00DD0123004A082000E100230049082000E2
:1068CE00E000230048082000DF00230047082000D6
:1068DE00DE000800250053082000DD0025005208C8
:1068EE002000DC00250051082000DB0025005008A8
:1068FE00080020006908B1006808B00008006708A9
:10690E002000DD00240066082000DC00240065085D
:10691E002000DB002400640808005F082000DD0072
:10692E0024005E082000DC0024005D082000DB004F
:10693E0024005C08080063082000DD0024006208C3
:10694E002000DC00240061082000DB002400600829
:10695E0008005B082000DD0024005A082000DC003F
:10696E00240059082000DB002400580808004F08B6
:10697E002000B10021004E082000B00008002000C9
:10698E00CA00C830C900C801C7012200080025008E
:10699E004F082000E10025004E082000E0002500F1
:1069AE004D082000DF0025004C082000DE00080006
:1069BE0024006B082000E10024006A082000E0009B
:1069CE00240069082000DF00240068082000DE0093
:1069DE00080023006E082000E10023006D0820004F
:1069EE00E00023006C082000DF0023006B0820006D
:1069FE00DE000800B40025006B082000BB00250057
:106A0E006A082000BA00250069082000B900250098
:106A1E00680808004A082300CA002000490823001D
:106A2E00C900200048082300C800200047082300A2
:106A3E00C700080023004A082000BB0023004908B5
:106A4E002000BA00230048082000B90023004708A0
:106A5E000800C201C301C401C501C601C701C801B6
:106A6E00C9010800A500A60121004F082000A400BE
:106A7E0021004E082000A3000800C601C701C8016E
:106A8E00C901CA01CB0108004A08E1004908E0002B
:106A9E004808DF004708DE0008002408AC00230881
:106AAE00AB00E830A9000330AA0008003708E10067
:106ABE003608E0003508DF003408DE000800053037
:106ACE00A500A60121006D082000A300A401080066
:106ADE002000B7004C30B600CC30B500CD340230BB
:106AEE00B401B501B601B7012200C20008002100B1
:106AFE0065086707690722000800A801A901AA0115
:106B0E00AB012200C2010800B40A0319B50A003015
:106B1E00350265342000A301A30AA401080024084D
:106B2E00AE002308AD0008002A08B1002908B00005
:106B3E000800C701C801C901CA0108002100A00050
:106B4E00A70020082000B200B20DB20D21001D08D2
:106B5E00200032068339320621009D001D142708BD
:106B6E000A3A0319BE2D2708093A031DDB2EA90187
:106B7E000D302000B200B20BC22D21009D149D18C5
:106B8E00C62D1C08C827B5313330A90A2902031CAB
:106B9E00BF2DA801A9012000B30121002808323C15
:106BAE00F327B5310318E32D2100C427B531BA27D9
:106BBE00B5314227B531D22D21003230A80A280234
:106BCE00031CD12D1D101A302000A9007030AA010F
:106BDE00860023308700A030840023308500003FDC
:106BEE00B200013FB300A4308400003F3207B4006E
:106BFE00013F333DB5009C308400003F3407B600A2
:106C0E00013F353DB700A8308400003F3607B8007D
:106C1E00013F373DB90098308400003F3807BA0075
:106C2E00013F393DBB00AC308400003F3A07BC0049
:106C3E00013F3B3DBD0094308400003F3C07BE0049
:106C4E00013F3D3DBF00B0308400003F3E07C00015
:106C5E00013F3F3DC10090308400003F4007C2001D
:106C6E00013F413DC300B4308400003F4207C400E1
:106C7E00013F433DC500703084001C31003F440786
:106C8E00C600013F453DC700B83084002330850063
:106C9E00003F4607C800013F473DC90070308400E1
:106CAE001831003F4807CA00013F493DCB00BC30B8
:106CBE00840023308500003F4A07CC00013F4B3D46
:106CCE00CD00703084001431003F4C07CE00013FE0
:106CDE004D3DCF00C030840023308500003F4E076D
:106CEE00D000013F4F3DD100703084001031003F85
:106CFE005007D200013F513DD300C43084002330F1
:106D0E008500003F5207D400013F533DD50070303F
:106D1E0084000C31003F5407D600013F553DD7008B
:106D2E00C830840023308500003F5607D800013F4D
:106D3E00573DD900703084000831003F5807DA0003
:106D4E00013F593DDB00CC30840023308500003FED
:106D5E005A07DC00013F5B3DDD00703084000431DA
:106D6E00003F5C07DE00013F5D3DDF00D030840058
:106D7E0023308500003F5E07E000013F5F3DE100EC
:106D8E00D4308400003F6007E200013F613DE30024
